{
  "_format": "hh-sol-artifact-1",
  "contractName": "CrossChainBridge",
  "sourceName": "contracts/CrossChainBridge.sol",
  "abi": [
    {
      "inputs": [
        {
          "internalType": "address",
          "name": "_admin",
          "type": "address"
        },
        {
          "internalType": "string",
          "name": "_representationName",
          "type": "string"
        },
        {
          "internalType": "string",
          "name": "_representationSymbol",
          "type": "string"
        }
      ],
      "stateMutability": "nonpayable",
      "type": "constructor"
    },
    {
      "inputs": [
        {
          "internalType": "address",
          "name": "owner",
          "type": "address"
        }
      ],
      "name": "OwnableInvalidOwner",
      "type": "error"
    },
    {
      "inputs": [
        {
          "internalType": "address",
          "name": "account",
          "type": "address"
        }
      ],
      "name": "OwnableUnauthorizedAccount",
      "type": "error"
    },
    {
      "inputs": [],
      "name": "ReentrancyGuardReentrantCall",
      "type": "error"
    },
    {
      "inputs": [
        {
          "internalType": "address",
          "name": "token",
          "type": "address"
        }
      ],
      "name": "SafeERC20FailedOperation",
      "type": "error"
    },
    {
      "anonymous": false,
      "inputs": [
        {
          "indexed": true,
          "internalType": "address",
          "name": "sender",
          "type": "address"
        },
        {
          "indexed": false,
          "internalType": "uint256",
          "name": "amount",
          "type": "uint256"
        },
        {
          "indexed": true,
          "internalType": "uint256",
          "name": "nonce",
          "type": "uint256"
        },
        {
          "indexed": false,
          "internalType": "uint256",
          "name": "timestamp",
          "type": "uint256"
        }
      ],
      "name": "BurnedRepresentation",
      "type": "event"
    },
    {
      "anonymous": false,
      "inputs": [
        {
          "indexed": true,
          "internalType": "address",
          "name": "sender",
          "type": "address"
        },
        {
          "indexed": true,
          "internalType": "address",
          "name": "tokenAddress",
          "type": "address"
        },
        {
          "indexed": false,
          "internalType": "uint256",
          "name": "amountOrId",
          "type": "uint256"
        },
        {
          "indexed": true,
          "internalType": "uint256",
          "name": "nonce",
          "type": "uint256"
        },
        {
          "indexed": false,
          "internalType": "uint256",
          "name": "timestamp",
          "type": "uint256"
        },
        {
          "indexed": false,
          "internalType": "enum CrossChainBridge.AssetType",
          "name": "assetType",
          "type": "uint8"
        }
      ],
      "name": "Locked",
      "type": "event"
    },
    {
      "anonymous": false,
      "inputs": [
        {
          "indexed": true,
          "internalType": "address",
          "name": "sender",
          "type": "address"
        },
        {
          "indexed": true,
          "internalType": "address",
          "name": "nftAddress",
          "type": "address"
        },
        {
          "indexed": false,
          "internalType": "uint256",
          "name": "tokenId",
          "type": "uint256"
        },
        {
          "indexed": true,
          "internalType": "uint256",
          "name": "nonce",
          "type": "uint256"
        },
        {
          "indexed": false,
          "internalType": "uint256",
          "name": "timestamp",
          "type": "uint256"
        }
      ],
      "name": "LockedNFT",
      "type": "event"
    },
    {
      "anonymous": false,
      "inputs": [
        {
          "indexed": true,
          "internalType": "address",
          "name": "recipient",
          "type": "address"
        },
        {
          "indexed": false,
          "internalType": "uint256",
          "name": "amount",
          "type": "uint256"
        },
        {
          "indexed": true,
          "internalType": "uint256",
          "name": "nonce",
          "type": "uint256"
        },
        {
          "indexed": false,
          "internalType": "uint256",
          "name": "timestamp",
          "type": "uint256"
        }
      ],
      "name": "MintedRepresentation",
      "type": "event"
    },
    {
      "anonymous": false,
      "inputs": [
        {
          "indexed": true,
          "internalType": "address",
          "name": "previousOwner",
          "type": "address"
        },
        {
          "indexed": true,
          "internalType": "address",
          "name": "newOwner",
          "type": "address"
        }
      ],
      "name": "OwnershipTransferred",
      "type": "event"
    },
    {
      "anonymous": false,
      "inputs": [
        {
          "indexed": true,
          "internalType": "address",
          "name": "recipient",
          "type": "address"
        },
        {
          "indexed": true,
          "internalType": "address",
          "name": "tokenAddress",
          "type": "address"
        },
        {
          "indexed": false,
          "internalType": "uint256",
          "name": "amountOrId",
          "type": "uint256"
        },
        {
          "indexed": true,
          "internalType": "uint256",
          "name": "nonce",
          "type": "uint256"
        },
        {
          "indexed": false,
          "internalType": "uint256",
          "name": "timestamp",
          "type": "uint256"
        },
        {
          "indexed": false,
          "internalType": "enum CrossChainBridge.AssetType",
          "name": "assetType",
          "type": "uint8"
        }
      ],
      "name": "Unlocked",
      "type": "event"
    },
    {
      "anonymous": false,
      "inputs": [
        {
          "indexed": true,
          "internalType": "address",
          "name": "recipient",
          "type": "address"
        },
        {
          "indexed": true,
          "internalType": "address",
          "name": "nftAddress",
          "type": "address"
        },
        {
          "indexed": false,
          "internalType": "uint256",
          "name": "tokenId",
          "type": "uint256"
        },
        {
          "indexed": true,
          "internalType": "uint256",
          "name": "nonce",
          "type": "uint256"
        },
        {
          "indexed": false,
          "internalType": "uint256",
          "name": "timestamp",
          "type": "uint256"
        }
      ],
      "name": "UnlockedNFT",
      "type": "event"
    },
    {
      "inputs": [],
      "name": "bridgeAdmin",
      "outputs": [
        {
          "internalType": "address",
          "name": "",
          "type": "address"
        }
      ],
      "stateMutability": "view",
      "type": "function"
    },
    {
      "inputs": [
        {
          "internalType": "uint256",
          "name": "amount",
          "type": "uint256"
        }
      ],
      "name": "burnRepresentation",
      "outputs": [],
      "stateMutability": "nonpayable",
      "type": "function"
    },
    {
      "inputs": [
        {
          "internalType": "address",
          "name": "tokenAddress",
          "type": "address"
        },
        {
          "internalType": "uint256",
          "name": "amount",
          "type": "uint256"
        }
      ],
      "name": "lockERC20",
      "outputs": [],
      "stateMutability": "nonpayable",
      "type": "function"
    },
    {
      "inputs": [
        {
          "internalType": "address",
          "name": "nftAddress",
          "type": "address"
        },
        {
          "internalType": "uint256",
          "name": "tokenId",
          "type": "uint256"
        }
      ],
      "name": "lockERC721",
      "outputs": [],
      "stateMutability": "nonpayable",
      "type": "function"
    },
    {
      "inputs": [
        {
          "internalType": "address",
          "name": "recipient",
          "type": "address"
        },
        {
          "internalType": "uint256",
          "name": "amount",
          "type": "uint256"
        },
        {
          "internalType": "uint256",
          "name": "_nonce",
          "type": "uint256"
        }
      ],
      "name": "mintRepresentation",
      "outputs": [],
      "stateMutability": "nonpayable",
      "type": "function"
    },
    {
      "inputs": [],
      "name": "nonce",
      "outputs": [
        {
          "internalType": "uint256",
          "name": "",
          "type": "uint256"
        }
      ],
      "stateMutability": "view",
      "type": "function"
    },
    {
      "inputs": [],
      "name": "owner",
      "outputs": [
        {
          "internalType": "address",
          "name": "",
          "type": "address"
        }
      ],
      "stateMutability": "view",
      "type": "function"
    },
    {
      "inputs": [
        {
          "internalType": "uint256",
          "name": "",
          "type": "uint256"
        }
      ],
      "name": "processedNonces",
      "outputs": [
        {
          "internalType": "bool",
          "name": "",
          "type": "bool"
        }
      ],
      "stateMutability": "view",
      "type": "function"
    },
    {
      "inputs": [],
      "name": "renounceOwnership",
      "outputs": [],
      "stateMutability": "nonpayable",
      "type": "function"
    },
    {
      "inputs": [],
      "name": "representationToken",
      "outputs": [
        {
          "internalType": "contract RepresentationToken",
          "name": "",
          "type": "address"
        }
      ],
      "stateMutability": "view",
      "type": "function"
    },
    {
      "inputs": [
        {
          "internalType": "address",
          "name": "newOwner",
          "type": "address"
        }
      ],
      "name": "transferOwnership",
      "outputs": [],
      "stateMutability": "nonpayable",
      "type": "function"
    },
    {
      "inputs": [
        {
          "internalType": "address",
          "name": "tokenAddress",
          "type": "address"
        },
        {
          "internalType": "address",
          "name": "recipient",
          "type": "address"
        },
        {
          "internalType": "uint256",
          "name": "amountOrId",
          "type": "uint256"
        },
        {
          "internalType": "enum CrossChainBridge.AssetType",
          "name": "assetType",
          "type": "uint8"
        },
        {
          "internalType": "uint256",
          "name": "_nonce",
          "type": "uint256"
        }
      ],
      "name": "unlockAsset",
      "outputs": [],
      "stateMutability": "nonpayable",
      "type": "function"
    },
    {
      "inputs": [
        {
          "internalType": "address",
          "name": "newAdmin",
          "type": "address"
        }
      ],
      "name": "updateBridgeAdmin",
      "outputs": [],
      "stateMutability": "nonpayable",
      "type": "function"
    }
  ],
  "bytecode": "0x608060405234801561001057600080fd5b506040516136c83803806136c8833981810160405281019061003291906104ff565b33600073ffffffffffffffffffffffffffffffffffffffff168173ffffffffffffffffffffffffffffffffffffffff16036100a55760006040517f1e4fbdf700000000000000000000000000000000000000000000000000000000815260040161009c9190610599565b60405180910390fd5b6100b48161025b60201b60201c565b5060018081905550600073ffffffffffffffffffffffffffffffffffffffff168373ffffffffffffffffffffffffffffffffffffffff160361012b576040517f08c379a000000000000000000000000000000000000000000000000000000000815260040161012290610611565b60405180910390fd5b82600360006101000a81548173ffffffffffffffffffffffffffffffffffffffff021916908373ffffffffffffffffffffffffffffffffffffffff1602179055506000828260405161017c9061031f565b610187929190610675565b604051809103906000f0801580156101a3573d6000803e3d6000fd5b5090508073ffffffffffffffffffffffffffffffffffffffff1663f2fde38b306040518263ffffffff1660e01b81526004016101df9190610599565b600060405180830381600087803b1580156101f957600080fd5b505af115801561020d573d6000803e3d6000fd5b5050505080600260006101000a81548173ffffffffffffffffffffffffffffffffffffffff021916908373ffffffffffffffffffffffffffffffffffffffff160217905550505050506106ac565b60008060009054906101000a900473ffffffffffffffffffffffffffffffffffffffff169050816000806101000a81548173ffffffffffffffffffffffffffffffffffffffff021916908373ffffffffffffffffffffffffffffffffffffffff1602179055508173ffffffffffffffffffffffffffffffffffffffff168173ffffffffffffffffffffffffffffffffffffffff167f8be0079c531659141344cd1fd0a4f28419497f9722a3daafe3b4186f6b6457e060405160405180910390a35050565b61197f80611d4983390190565b6000604051905090565b600080fd5b600080fd5b600073ffffffffffffffffffffffffffffffffffffffff82169050919050565b600061036b82610340565b9050919050565b61037b81610360565b811461038657600080fd5b50565b60008151905061039881610372565b92915050565b600080fd5b600080fd5b6000601f19601f8301169050919050565b7f4e487b7100000000000000000000000000000000000000000000000000000000600052604160045260246000fd5b6103f1826103a8565b810181811067ffffffffffffffff821117156104105761040f6103b9565b5b80604052505050565b600061042361032c565b905061042f82826103e8565b919050565b600067ffffffffffffffff82111561044f5761044e6103b9565b5b610458826103a8565b9050602081019050919050565b60005b83811015610483578082015181840152602081019050610468565b60008484015250505050565b60006104a261049d84610434565b610419565b9050828152602081018484840111156104be576104bd6103a3565b5b6104c9848285610465565b509392505050565b600082601f8301126104e6576104e561039e565b5b81516104f684826020860161048f565b91505092915050565b60008060006060848603121561051857610517610336565b5b600061052686828701610389565b935050602084015167ffffffffffffffff8111156105475761054661033b565b5b610553868287016104d1565b925050604084015167ffffffffffffffff8111156105745761057361033b565b5b610580868287016104d1565b9150509250925092565b61059381610360565b82525050565b60006020820190506105ae600083018461058a565b92915050565b600082825260208201905092915050565b7f41646d696e2063616e6e6f74206265207a65726f206164647265737300000000600082015250565b60006105fb601c836105b4565b9150610606826105c5565b602082019050919050565b6000602082019050818103600083015261062a816105ee565b9050919050565b600081519050919050565b600061064782610631565b61065181856105b4565b9350610661818560208601610465565b61066a816103a8565b840191505092915050565b6000604082019050818103600083015261068f818561063c565b905081810360208301526106a3818461063c565b90509392505050565b61168e806106bb6000396000f3fe608060405234801561001057600080fd5b50600436106100cf5760003560e01c8063971db4b41161008c578063b52aaecf11610066578063b52aaecf146101da578063b6557073146101f6578063ea8210b614610212578063f2fde38b1461022e576100cf565b8063971db4b414610182578063a6af2dfe1461019e578063affed0e0146101bc576100cf565b80630ba01ec6146100d45780635f1953f1146100f0578063715018a61461010c5780637fc76319146101165780638da5cb5b1461013457806391dae51914610152575b600080fd5b6100ee60048036038101906100e99190611058565b61024a565b005b61010a600480360381019061010591906110bd565b610353565b005b610114610625565b005b61011e610639565b60405161012b9190611197565b60405180910390f35b61013c61065f565b60405161014991906111c1565b60405180910390f35b61016c600480360381019061016791906111dc565b610688565b6040516101799190611224565b60405180910390f35b61019c60048036038101906101979190611058565b6106a8565b005b6101a66107ad565b6040516101b391906111c1565b60405180910390f35b6101c46107d3565b6040516101d1919061124e565b60405180910390f35b6101f460048036038101906101ef91906111dc565b6107d9565b005b610210600480360381019061020b9190611269565b610927565b005b61022c600480360381019061022791906112bc565b610b39565b005b610248600480360381019061024391906112bc565b610bf4565b005b610252610c7a565b60008111610295576040517f08c379a000000000000000000000000000000000000000000000000000000000815260040161028c90611346565b60405180910390fd5b6102c23330838573ffffffffffffffffffffffffffffffffffffffff16610cc0909392919063ffffffff16565b600460008154809291906102d590611395565b91905055506004548273ffffffffffffffffffffffffffffffffffffffff163373ffffffffffffffffffffffffffffffffffffffff167f50c8b4c5dbaf958c98af58a55b80e82711199359c295442dd00591f53b48fc898442600060405161033f93929190611454565b60405180910390a461034f610d42565b5050565b600360009054906101000a900473ffffffffffffffffffffffffffffffffffffffff1673ffffffffffffffffffffffffffffffffffffffff163373ffffffffffffffffffffffffffffffffffffffff16146103e3576040517f08c379a00000000000000000000000000000000000000000000000000000000081526004016103da906114d7565b60405180910390fd5b6103eb610c7a565b6005600082815260200190815260200160002060009054906101000a900460ff161561044c576040517f08c379a000000000000000000000000000000000000000000000000000000000815260040161044390611543565b60405180910390fd5b60016005600083815260200190815260200160002060006101000a81548160ff0219169083151502179055506000600181111561048c5761048b6113dd565b5b82600181111561049f5761049e6113dd565b5b0361053e576104cf84848773ffffffffffffffffffffffffffffffffffffffff16610d4b9092919063ffffffff16565b808573ffffffffffffffffffffffffffffffffffffffff168573ffffffffffffffffffffffffffffffffffffffff167f7753b66cba64d56230e2c7e49efc302033ab75b4ad4bd56de0b5803b823d3b8486428760405161053193929190611454565b60405180910390a4610616565b8473ffffffffffffffffffffffffffffffffffffffff166323b872dd3086866040518463ffffffff1660e01b815260040161057b93929190611563565b600060405180830381600087803b15801561059557600080fd5b505af11580156105a9573d6000803e3d6000fd5b50505050808573ffffffffffffffffffffffffffffffffffffffff168573ffffffffffffffffffffffffffffffffffffffff167ffe08b58a32b76c76349b5a15ee7b649dbeda47806bd4749a649b5e7a16ab1e86864260405161060d92919061159a565b60405180910390a45b61061e610d42565b5050505050565b61062d610dca565b6106376000610e51565b565b600260009054906101000a900473ffffffffffffffffffffffffffffffffffffffff1681565b60008060009054906101000a900473ffffffffffffffffffffffffffffffffffffffff16905090565b60056020528060005260406000206000915054906101000a900460ff1681565b6106b0610c7a565b8173ffffffffffffffffffffffffffffffffffffffff166323b872dd3330846040518463ffffffff1660e01b81526004016106ed93929190611563565b600060405180830381600087803b15801561070757600080fd5b505af115801561071b573d6000803e3d6000fd5b505050506004600081548092919061073290611395565b91905055506004548273ffffffffffffffffffffffffffffffffffffffff163373ffffffffffffffffffffffffffffffffffffffff167f61969deceae22c8be8204889677cfa82dc1a201f4cad7d13c72b77a3adeec80e844260405161079992919061159a565b60405180910390a46107a9610d42565b5050565b600360009054906101000a900473ffffffffffffffffffffffffffffffffffffffff1681565b60045481565b6107e1610c7a565b60008111610824576040517f08c379a000000000000000000000000000000000000000000000000000000000815260040161081b90611346565b60405180910390fd5b600260009054906101000a900473ffffffffffffffffffffffffffffffffffffffff1673ffffffffffffffffffffffffffffffffffffffff166342966c68826040518263ffffffff1660e01b815260040161087f919061124e565b600060405180830381600087803b15801561089957600080fd5b505af11580156108ad573d6000803e3d6000fd5b50505050600460008154809291906108c490611395565b91905055506004543373ffffffffffffffffffffffffffffffffffffffff167f5a70257496d19767e22e5d4954f325b9a0a1ca79819574069703fd8d1cf05834834260405161091492919061159a565b60405180910390a3610924610d42565b50565b600360009054906101000a900473ffffffffffffffffffffffffffffffffffffffff1673ffffffffffffffffffffffffffffffffffffffff163373ffffffffffffffffffffffffffffffffffffffff16146109b7576040517f08c379a00000000000000000000000000000000000000000000000000000000081526004016109ae906114d7565b60405180910390fd5b6109bf610c7a565b6005600082815260200190815260200160002060009054906101000a900460ff1615610a20576040517f08c379a0000000000000000000000000000000000000000000000000000000008152600401610a1790611543565b60405180910390fd5b60016005600083815260200190815260200160002060006101000a81548160ff021916908315150217905550600260009054906101000a900473ffffffffffffffffffffffffffffffffffffffff1673ffffffffffffffffffffffffffffffffffffffff166340c10f1984846040518363ffffffff1660e01b8152600401610aa99291906115c3565b600060405180830381600087803b158015610ac357600080fd5b505af1158015610ad7573d6000803e3d6000fd5b50505050808373ffffffffffffffffffffffffffffffffffffffff167f2def0fd62d3b9e60ef66f61cd05b93fe9616c4de405dae1051eee7ce4cdbe00f8442604051610b2492919061159a565b60405180910390a3610b34610d42565b505050565b610b41610dca565b600073ffffffffffffffffffffffffffffffffffffffff168173ffffffffffffffffffffffffffffffffffffffff1603610bb0576040517f08c379a0000000000000000000000000000000000000000000000000000000008152600401610ba790611638565b60405180910390fd5b80600360006101000a81548173ffffffffffffffffffffffffffffffffffffffff021916908373ffffffffffffffffffffffffffffffffffffffff16021790555050565b610bfc610dca565b600073ffffffffffffffffffffffffffffffffffffffff168173ffffffffffffffffffffffffffffffffffffffff1603610c6e5760006040517f1e4fbdf7000000000000000000000000000000000000000000000000000000008152600401610c6591906111c1565b60405180910390fd5b610c7781610e51565b50565b600260015403610cb6576040517f3ee5aeb500000000000000000000000000000000000000000000000000000000815260040160405180910390fd5b6002600181905550565b610d3c848573ffffffffffffffffffffffffffffffffffffffff166323b872dd868686604051602401610cf593929190611563565b604051602081830303815290604052915060e01b6020820180517bffffffffffffffffffffffffffffffffffffffffffffffffffffffff8381831617835250505050610f15565b50505050565b60018081905550565b610dc5838473ffffffffffffffffffffffffffffffffffffffff1663a9059cbb8585604051602401610d7e9291906115c3565b604051602081830303815290604052915060e01b6020820180517bffffffffffffffffffffffffffffffffffffffffffffffffffffffff8381831617835250505050610f15565b505050565b610dd2610fb7565b73ffffffffffffffffffffffffffffffffffffffff16610df061065f565b73ffffffffffffffffffffffffffffffffffffffff1614610e4f57610e13610fb7565b6040517f118cdaa7000000000000000000000000000000000000000000000000000000008152600401610e4691906111c1565b60405180910390fd5b565b60008060009054906101000a900473ffffffffffffffffffffffffffffffffffffffff169050816000806101000a81548173ffffffffffffffffffffffffffffffffffffffff021916908373ffffffffffffffffffffffffffffffffffffffff1602179055508173ffffffffffffffffffffffffffffffffffffffff168173ffffffffffffffffffffffffffffffffffffffff167f8be0079c531659141344cd1fd0a4f28419497f9722a3daafe3b4186f6b6457e060405160405180910390a35050565b600080602060008451602086016000885af180610f38576040513d6000823e3d81fd5b3d925060005191505060008214610f53576001811415610f6f565b60008473ffffffffffffffffffffffffffffffffffffffff163b145b15610fb157836040517f5274afe7000000000000000000000000000000000000000000000000000000008152600401610fa891906111c1565b60405180910390fd5b50505050565b600033905090565b600080fd5b600073ffffffffffffffffffffffffffffffffffffffff82169050919050565b6000610fef82610fc4565b9050919050565b610fff81610fe4565b811461100a57600080fd5b50565b60008135905061101c81610ff6565b92915050565b6000819050919050565b61103581611022565b811461104057600080fd5b50565b6000813590506110528161102c565b92915050565b6000806040838503121561106f5761106e610fbf565b5b600061107d8582860161100d565b925050602061108e85828601611043565b9150509250929050565b600281106110a557600080fd5b50565b6000813590506110b781611098565b92915050565b600080600080600060a086880312156110d9576110d8610fbf565b5b60006110e78882890161100d565b95505060206110f88882890161100d565b945050604061110988828901611043565b935050606061111a888289016110a8565b925050608061112b88828901611043565b9150509295509295909350565b6000819050919050565b600061115d61115861115384610fc4565b611138565b610fc4565b9050919050565b600061116f82611142565b9050919050565b600061118182611164565b9050919050565b61119181611176565b82525050565b60006020820190506111ac6000830184611188565b92915050565b6111bb81610fe4565b82525050565b60006020820190506111d660008301846111b2565b92915050565b6000602082840312156111f2576111f1610fbf565b5b600061120084828501611043565b91505092915050565b60008115159050919050565b61121e81611209565b82525050565b60006020820190506112396000830184611215565b92915050565b61124881611022565b82525050565b6000602082019050611263600083018461123f565b92915050565b60008060006060848603121561128257611281610fbf565b5b60006112908682870161100d565b93505060206112a186828701611043565b92505060406112b286828701611043565b9150509250925092565b6000602082840312156112d2576112d1610fbf565b5b60006112e08482850161100d565b91505092915050565b600082825260208201905092915050565b7f416d6f756e74206d757374206265203e20300000000000000000000000000000600082015250565b60006113306012836112e9565b915061133b826112fa565b602082019050919050565b6000602082019050818103600083015261135f81611323565b9050919050565b7f4e487b7100000000000000000000000000000000000000000000000000000000600052601160045260246000fd5b60006113a082611022565b91507fffffffffffffffffffffffffffffffffffffffffffffffffffffffffffffffff82036113d2576113d1611366565b5b600182019050919050565b7f4e487b7100000000000000000000000000000000000000000000000000000000600052602160045260246000fd5b6002811061141d5761141c6113dd565b5b50565b600081905061142e8261140c565b919050565b600061143e82611420565b9050919050565b61144e81611433565b82525050565b6000606082019050611469600083018661123f565b611476602083018561123f565b6114836040830184611445565b949350505050565b7f4e6f74206272696467652061646d696e00000000000000000000000000000000600082015250565b60006114c16010836112e9565b91506114cc8261148b565b602082019050919050565b600060208201905081810360008301526114f0816114b4565b9050919050565b7f4e6f6e636520616c72656164792070726f636573736564000000000000000000600082015250565b600061152d6017836112e9565b9150611538826114f7565b602082019050919050565b6000602082019050818103600083015261155c81611520565b9050919050565b600060608201905061157860008301866111b2565b61158560208301856111b2565b611592604083018461123f565b949350505050565b60006040820190506115af600083018561123f565b6115bc602083018461123f565b9392505050565b60006040820190506115d860008301856111b2565b6115e5602083018461123f565b9392505050565b7f496e76616c69642061646d696e00000000000000000000000000000000000000600082015250565b6000611622600d836112e9565b915061162d826115ec565b602082019050919050565b6000602082019050818103600083015261165181611615565b905091905056fea26469706673582212200a426e8241d129001a94736c45887ec344dee7f64a57985a204367e4b0461b0364736f6c634300081c0033608060405234801561001057600080fd5b5060405161197f38038061197f8339818101604052810190610032919061031b565b338282816003908161004491906105b4565b50806004908161005491906105b4565b505050600073ffffffffffffffffffffffffffffffffffffffff168173ffffffffffffffffffffffffffffffffffffffff16036100c95760006040517f1e4fbdf70000000000000000000000000000000000000000000000000000000081526004016100c091906106c7565b60405180910390fd5b6100d8816100e060201b60201c565b5050506106e2565b6000600560009054906101000a900473ffffffffffffffffffffffffffffffffffffffff16905081600560006101000a81548173ffffffffffffffffffffffffffffffffffffffff021916908373ffffffffffffffffffffffffffffffffffffffff1602179055508173ffffffffffffffffffffffffffffffffffffffff168173ffffffffffffffffffffffffffffffffffffffff167f8be0079c531659141344cd1fd0a4f28419497f9722a3daafe3b4186f6b6457e060405160405180910390a35050565b6000604051905090565b600080fd5b600080fd5b600080fd5b600080fd5b6000601f19601f8301169050919050565b7f4e487b7100000000000000000000000000000000000000000000000000000000600052604160045260246000fd5b61020d826101c4565b810181811067ffffffffffffffff8211171561022c5761022b6101d5565b5b80604052505050565b600061023f6101a6565b905061024b8282610204565b919050565b600067ffffffffffffffff82111561026b5761026a6101d5565b5b610274826101c4565b9050602081019050919050565b60005b8381101561029f578082015181840152602081019050610284565b60008484015250505050565b60006102be6102b984610250565b610235565b9050828152602081018484840111156102da576102d96101bf565b5b6102e5848285610281565b509392505050565b600082601f830112610302576103016101ba565b5b81516103128482602086016102ab565b91505092915050565b60008060408385031215610332576103316101b0565b5b600083015167ffffffffffffffff8111156103505761034f6101b5565b5b61035c858286016102ed565b925050602083015167ffffffffffffffff81111561037d5761037c6101b5565b5b610389858286016102ed565b9150509250929050565b600081519050919050565b7f4e487b7100000000000000000000000000000000000000000000000000000000600052602260045260246000fd5b600060028204905060018216806103e557607f821691505b6020821081036103f8576103f761039e565b5b50919050565b60008190508160005260206000209050919050565b60006020601f8301049050919050565b600082821b905092915050565b6000600883026104607fffffffffffffffffffffffffffffffffffffffffffffffffffffffffffffffff82610423565b61046a8683610423565b95508019841693508086168417925050509392505050565b6000819050919050565b6000819050919050565b60006104b16104ac6104a784610482565b61048c565b610482565b9050919050565b6000819050919050565b6104cb83610496565b6104df6104d7826104b8565b848454610430565b825550505050565b600090565b6104f46104e7565b6104ff8184846104c2565b505050565b5b81811015610523576105186000826104ec565b600181019050610505565b5050565b601f82111561056857610539816103fe565b61054284610413565b81016020851015610551578190505b61056561055d85610413565b830182610504565b50505b505050565b600082821c905092915050565b600061058b6000198460080261056d565b1980831691505092915050565b60006105a4838361057a565b9150826002028217905092915050565b6105bd82610393565b67ffffffffffffffff8111156105d6576105d56101d5565b5b6105e082546103cd565b6105eb828285610527565b600060209050601f83116001811461061e576000841561060c578287015190505b6106168582610598565b86555061067e565b601f19841661062c866103fe565b60005b828110156106545784890151825560018201915060208501945060208101905061062f565b86831015610671578489015161066d601f89168261057a565b8355505b6001600288020188555050505b505050505050565b600073ffffffffffffffffffffffffffffffffffffffff82169050919050565b60006106b182610686565b9050919050565b6106c1816106a6565b82525050565b60006020820190506106dc60008301846106b8565b92915050565b61128e806106f16000396000f3fe608060405234801561001057600080fd5b50600436106100ea5760003560e01c806370a082311161008c57806395d89b411161006657806395d89b4114610239578063a9059cbb14610257578063dd62ed3e14610287578063f2fde38b146102b7576100ea565b806370a08231146101e1578063715018a6146102115780638da5cb5b1461021b576100ea565b806323b872dd116100c857806323b872dd1461015b578063313ce5671461018b57806340c10f19146101a957806342966c68146101c5576100ea565b806306fdde03146100ef578063095ea7b31461010d57806318160ddd1461013d575b600080fd5b6100f76102d3565b6040516101049190610eb5565b60405180910390f35b61012760048036038101906101229190610f70565b610365565b6040516101349190610fcb565b60405180910390f35b610145610388565b6040516101529190610ff5565b60405180910390f35b61017560048036038101906101709190611010565b610392565b6040516101829190610fcb565b60405180910390f35b6101936103c1565b6040516101a0919061107f565b60405180910390f35b6101c360048036038101906101be9190610f70565b6103ca565b005b6101df60048036038101906101da919061109a565b6103e0565b005b6101fb60048036038101906101f691906110c7565b6103ed565b6040516102089190610ff5565b60405180910390f35b610219610435565b005b610223610449565b6040516102309190611103565b60405180910390f35b610241610473565b60405161024e9190610eb5565b60405180910390f35b610271600480360381019061026c9190610f70565b610505565b60405161027e9190610fcb565b60405180910390f35b6102a1600480360381019061029c919061111e565b610528565b6040516102ae9190610ff5565b60405180910390f35b6102d160048036038101906102cc91906110c7565b6105af565b005b6060600380546102e29061118d565b80601f016020809104026020016040519081016040528092919081815260200182805461030e9061118d565b801561035b5780601f106103305761010080835404028352916020019161035b565b820191906000526020600020905b81548152906001019060200180831161033e57829003601f168201915b5050505050905090565b600080610370610635565b905061037d81858561063d565b600191505092915050565b6000600254905090565b60008061039d610635565b90506103aa85828561064f565b6103b58585856106e4565b60019150509392505050565b60006012905090565b6103d26107d8565b6103dc828261085f565b5050565b6103ea33826108e1565b50565b60008060008373ffffffffffffffffffffffffffffffffffffffff1673ffffffffffffffffffffffffffffffffffffffff168152602001908152602001600020549050919050565b61043d6107d8565b6104476000610963565b565b6000600560009054906101000a900473ffffffffffffffffffffffffffffffffffffffff16905090565b6060600480546104829061118d565b80601f01602080910402602001604051908101604052809291908181526020018280546104ae9061118d565b80156104fb5780601f106104d0576101008083540402835291602001916104fb565b820191906000526020600020905b8154815290600101906020018083116104de57829003601f168201915b5050505050905090565b600080610510610635565b905061051d8185856106e4565b600191505092915050565b6000600160008473ffffffffffffffffffffffffffffffffffffffff1673ffffffffffffffffffffffffffffffffffffffff16815260200190815260200160002060008373ffffffffffffffffffffffffffffffffffffffff1673ffffffffffffffffffffffffffffffffffffffff16815260200190815260200160002054905092915050565b6105b76107d8565b600073ffffffffffffffffffffffffffffffffffffffff168173ffffffffffffffffffffffffffffffffffffffff16036106295760006040517f1e4fbdf70000000000000000000000000000000000000000000000000000000081526004016106209190611103565b60405180910390fd5b61063281610963565b50565b600033905090565b61064a8383836001610a29565b505050565b600061065b8484610528565b90507fffffffffffffffffffffffffffffffffffffffffffffffffffffffffffffffff8110156106de57818110156106ce578281836040517ffb8f41b20000000000000000000000000000000000000000000000000000000081526004016106c5939291906111be565b60405180910390fd5b6106dd84848484036000610a29565b5b50505050565b600073ffffffffffffffffffffffffffffffffffffffff168373ffffffffffffffffffffffffffffffffffffffff16036107565760006040517f96c6fd1e00000000000000000000000000000000000000000000000000000000815260040161074d9190611103565b60405180910390fd5b600073ffffffffffffffffffffffffffffffffffffffff168273ffffffffffffffffffffffffffffffffffffffff16036107c85760006040517fec442f050000000000000000000000000000000000000000000000000000000081526004016107bf9190611103565b60405180910390fd5b6107d3838383610c00565b505050565b6107e0610635565b73ffffffffffffffffffffffffffffffffffffffff166107fe610449565b73ffffffffffffffffffffffffffffffffffffffff161461085d57610821610635565b6040517f118cdaa70000000000000000000000000000000000000000000000000000000081526004016108549190611103565b60405180910390fd5b565b600073ffffffffffffffffffffffffffffffffffffffff168273ffffffffffffffffffffffffffffffffffffffff16036108d15760006040517fec442f050000000000000000000000000000000000000000000000000000000081526004016108c89190611103565b60405180910390fd5b6108dd60008383610c00565b5050565b600073ffffffffffffffffffffffffffffffffffffffff168273ffffffffffffffffffffffffffffffffffffffff16036109535760006040517f96c6fd1e00000000000000000000000000000000000000000000000000000000815260040161094a9190611103565b60405180910390fd5b61095f82600083610c00565b5050565b6000600560009054906101000a900473ffffffffffffffffffffffffffffffffffffffff16905081600560006101000a81548173ffffffffffffffffffffffffffffffffffffffff021916908373ffffffffffffffffffffffffffffffffffffffff1602179055508173ffffffffffffffffffffffffffffffffffffffff168173ffffffffffffffffffffffffffffffffffffffff167f8be0079c531659141344cd1fd0a4f28419497f9722a3daafe3b4186f6b6457e060405160405180910390a35050565b600073ffffffffffffffffffffffffffffffffffffffff168473ffffffffffffffffffffffffffffffffffffffff1603610a9b5760006040517fe602df05000000000000000000000000000000000000000000000000000000008152600401610a929190611103565b60405180910390fd5b600073ffffffffffffffffffffffffffffffffffffffff168373ffffffffffffffffffffffffffffffffffffffff1603610b0d5760006040517f94280d62000000000000000000000000000000000000000000000000000000008152600401610b049190611103565b60405180910390fd5b81600160008673ffffffffffffffffffffffffffffffffffffffff1673ffffffffffffffffffffffffffffffffffffffff16815260200190815260200160002060008573ffffffffffffffffffffffffffffffffffffffff1673ffffffffffffffffffffffffffffffffffffffff168152602001908152602001600020819055508015610bfa578273ffffffffffffffffffffffffffffffffffffffff168473ffffffffffffffffffffffffffffffffffffffff167f8c5be1e5ebec7d5bd14f71427d1e84f3dd0314c0f7b2291e5b200ac8c7c3b92584604051610bf19190610ff5565b60405180910390a35b50505050565b600073ffffffffffffffffffffffffffffffffffffffff168373ffffffffffffffffffffffffffffffffffffffff1603610c52578060026000828254610c469190611224565b92505081905550610d25565b60008060008573ffffffffffffffffffffffffffffffffffffffff1673ffffffffffffffffffffffffffffffffffffffff16815260200190815260200160002054905081811015610cde578381836040517fe450d38c000000000000000000000000000000000000000000000000000000008152600401610cd5939291906111be565b60405180910390fd5b8181036000808673ffffffffffffffffffffffffffffffffffffffff1673ffffffffffffffffffffffffffffffffffffffff16815260200190815260200160002081905550505b600073ffffffffffffffffffffffffffffffffffffffff168273ffffffffffffffffffffffffffffffffffffffff1603610d6e5780600260008282540392505081905550610dbb565b806000808473ffffffffffffffffffffffffffffffffffffffff1673ffffffffffffffffffffffffffffffffffffffff168152602001908152602001600020600082825401925050819055505b8173ffffffffffffffffffffffffffffffffffffffff168373ffffffffffffffffffffffffffffffffffffffff167fddf252ad1be2c89b69c2b068fc378daa952ba7f163c4a11628f55a4df523b3ef83604051610e189190610ff5565b60405180910390a3505050565b600081519050919050565b600082825260208201905092915050565b60005b83811015610e5f578082015181840152602081019050610e44565b60008484015250505050565b6000601f19601f8301169050919050565b6000610e8782610e25565b610e918185610e30565b9350610ea1818560208601610e41565b610eaa81610e6b565b840191505092915050565b60006020820190508181036000830152610ecf8184610e7c565b905092915050565b600080fd5b600073ffffffffffffffffffffffffffffffffffffffff82169050919050565b6000610f0782610edc565b9050919050565b610f1781610efc565b8114610f2257600080fd5b50565b600081359050610f3481610f0e565b92915050565b6000819050919050565b610f4d81610f3a565b8114610f5857600080fd5b50565b600081359050610f6a81610f44565b92915050565b60008060408385031215610f8757610f86610ed7565b5b6000610f9585828601610f25565b9250506020610fa685828601610f5b565b9150509250929050565b60008115159050919050565b610fc581610fb0565b82525050565b6000602082019050610fe06000830184610fbc565b92915050565b610fef81610f3a565b82525050565b600060208201905061100a6000830184610fe6565b92915050565b60008060006060848603121561102957611028610ed7565b5b600061103786828701610f25565b935050602061104886828701610f25565b925050604061105986828701610f5b565b9150509250925092565b600060ff82169050919050565b61107981611063565b82525050565b60006020820190506110946000830184611070565b92915050565b6000602082840312156110b0576110af610ed7565b5b60006110be84828501610f5b565b91505092915050565b6000602082840312156110dd576110dc610ed7565b5b60006110eb84828501610f25565b91505092915050565b6110fd81610efc565b82525050565b600060208201905061111860008301846110f4565b92915050565b6000806040838503121561113557611134610ed7565b5b600061114385828601610f25565b925050602061115485828601610f25565b9150509250929050565b7f4e487b7100000000000000000000000000000000000000000000000000000000600052602260045260246000fd5b600060028204905060018216806111a557607f821691505b6020821081036111b8576111b761115e565b5b50919050565b60006060820190506111d360008301866110f4565b6111e06020830185610fe6565b6111ed6040830184610fe6565b949350505050565b7f4e487b7100000000000000000000000000000000000000000000000000000000600052601160045260246000fd5b600061122f82610f3a565b915061123a83610f3a565b9250828201905080821115611252576112516111f5565b5b9291505056fea26469706673582212204219f68422c2d3917188c7e4e5e56eaf36b5014b446aef018ac8bb69d3f8003064736f6c634300081c0033",
  "linkReferences": {},
  "deployedLinkReferences": {}
}